:020000040800F2
:1000000000000220118E0008B91B0008BD1B00086B
:10001000C11B0008C51B0008C91B00080000000028
:10002000000000000000000000000000CD1B0008E0
:10003000D11B000800000000D51B0008D91B0008D8
:10004000618E0008618E0008618E0008618E0008D4
:10005000618E0008618E0008618E0008618E0008C4
:10006000618E0008618E0008618E0008DD1B0008AB
:10007000618E0008618E0008618E0008618E0008A4
:10008000618E0008618E0008E91B0008618E00087F
:10009000618E0008618E0008618E0008618E000884
:1000A000618E0008618E0008618E0008618E000874
:1000B000618E0008618E0008618E0008618E000864
:1000C000618E0008618E0008618E0008618E000854
:1000D000618E0008F51B0008618E0008618E000823
:1000E000618E0008618E000800000000618E00082B
:1000F000618E0008618E0008618E0008618E000824
:10010000618E0008618E0008618E0008618E000813
:10011000618E0008618E0008618E0008011C0008D5
:10012000618E0008618E0008618E0008618E0008F3
:10013000618E0008618E0008618E0008618E0008E3
:1001400000000000000000000000000000000000AF
:10015000618E0008618E0008618E0008618E0008C3
:10016000618E0008618E0008618E0008618E0008B3
:10017000618E0008618E0008618E0008000000009A
:10018000618E0008618E0008618E0008618E000893
:10019000618E0008618E0008618E0008618E000883
:1001A000618E0008618E0008618E0008618E000873
:1001B000618E0008618E0008618E0008618E000863
:1001C000618E0008618E0008618E0008618E000853
:1001D000618E0008618E0008618E0008618E000843
:1001E000618E0008618E0008618E0008618E000833
:1001F000618E0008618E0008618E0008618E000823
:10020000618E0008618E0008618E0008618E000812
:10021000618E0008618E0008618E0008618E000802
:10022000618E0008618E0008618E000800000000E9
:10023000618E0008618E000800000000618E0008D9
:10024000618E0008618E0008618E0008618E0008D2
:10025000618E0008618E0008618E0008618E0008C2
:10026000618E0008618E0008618E0008618E0008B2
:10027000618E0008618E0008618E00080000000099
:10028000618E0008618E0008618E00080000000089
:0802900000000000618E00086F
:1002980010B5054C237833B9044B13B10448AFF3B8
:1002A80000800123237010BDF00000200000000032
:1002B8006094000808B5034B1BB103490348AFF32A
:1002C800008008BD00000000F400002060940008D1
:1002D80053B94AB9002908BF00281CBF4FF0FF31A5
:1002E8004FF0FF3000F06AB9ADF1080C6DE904CEAB
:1002F80000F006F8DDF804E0DDE9022304B07047F9
:100308002DE9F047089D0C46002B4ED194468C45AC
:100318008646B2FA82F262D94AB1C2F1200391400C
:1003280020FA03F30CFA02FC194300FA02FE4FEA22
:100338001C471FFA8CF6B1FBF7F44FEA1E4307FB84
:10034800141143EA014304FB06F199420AD91CEB54
:10035800030304F1FF3080F01281994240F20F81CB
:10036800023C6344591A1FFA8EF3B1FBF7F007FBFE
:10037800101143EA014300FB06F69E420AD91CEB22
:10038800030300F1FF3180F0FC809E4240F2F980C7
:10039800634402389B1B40EA044000211DB1D3404E
:1003A8000022C5E90032BDE8F0878B4205D90DB1BE
:1003B800C5E9000100210846F5E7B3FA83F10029F1
:1003C80046D1A34202D39042C0F0F080861A64EB73
:1003D80003030120002DE6D0C5E90063E3E7002A06
:1003E80040F09080A1EB0C044FEA1C481FFA8CF7F0
:1003F8000121B4FBF8F64FEA1E4308FB164443EA12
:10040800044307FB06F0984208D91CEB030306F1E6
:10041800FF3402D2984200F2CD8026461C1A1FFAF9
:100428008EF3B4FBF8F008FB104443EA044300FBE6
:1004380007F79F4208D91CEB030300F1FF3402D2EF
:100448009F4200F2B0802046DB1B40EA0640A5E749
:10045800C1F120068B4022FA06F71F4320FA06FC5A
:1004680004FA01F343EA0C03F44000FA01F8380CEB
:100478004FEA1349B4FBF0FE1FFA87FC00FB1E4449
:1004880049EA04440EFB0CF9A14502FA01F20AD923
:100498003C190EF1FF3A80F08480A14540F281803A
:1004A800AEF1020E3C44A4EB09041FFA83F9B4FB35
:1004B800F0F300FB134449EA044403FB0CFCA44595
:1004C80007D93C1903F1FF3067D2A44565D9023B2F
:1004D8003C4443EA0E40A0FB0293A4EB0C049C426C
:1004E800CE469C4651D34ED055B1B8EB0E0364EBC3
:1004F8000C0404FA06F6CB401E43CC40C5E9006460
:10050800002150E7C2F1200320FA03F10CFA02FCA3
:1005180024FA03F394400C434FEA1C4800FA02FE05
:100528001FFA8CF7B3FBF8F008FB1031230C43EAF1
:10053800014300FB07F1994208D91CEB030300F1C2
:10054800FF362CD299422AD9023863445B1AA4B2E6
:10055800B3FBF8F108FB113344EA034401FB07F34A
:10056800A34208D91CEB040401F1FF3613D2A342BD
:1005780011D902396444E41A41EA004139E70446D2
:10058800F0E6084606E7C845AED2B9EB020E63EBC3
:10059800070C0138A8E73146EDE7034699E73046EE
:1005A800D4E7D6467FE7634402384DE7064623463C
:1005B80008460FE7023E634430E700BF704700BFBC
:1005C80002440346934200D1704703F8011BF9E740
:1005D80070B50D4D0D4C641BA4100026A64209D120
:1005E8000B4D0C4C08F038FF641BA4100026A642E3
:1005F80005D170BD55F8043B98470136EEE755F82C
:10060800043B98470136F2E778AD000878AD00085A
:1006180078AD00087CAD00080021014806F05EBEF8
:10062800D40A0020114B0021DFED116A1B8807EE68
:10063800103AB8EEC77A10B5C7EE267A0D4C226884
:10064800FCEEE77A17EE903A013B5808D362E36074
:100658005063204606F0A2FD642006F005FB204604
:100668000021BDE8104006F039BE00BF5000002050
:1006780000803B45D40A00203C21054808B506F017
:100688007DFF3C210348BDE8084006F077BF00BF66
:10069800200B0020880A0020014B1B68586A70470D
:1006A800200B0020014B1B68586A7047880A0020FD
:1006B800044B002204489A609A81C3E9002201F0A1
:1006C800BBBE00BF80020020B80B00200000000065
:1006D80038B502684A4B9A422DED048B02D0BDEC26
:1006E800048B38BD474D01F0F3FA474B2C7823F8BB
:1006F800140083B2002C3FD008EE103AB0EE081B6D
:100708009FED2D4BB8EEC88B9FED2D5B28EE048B2B
:100718009FED2D6B9FED2E9B28EE058B9FED2E7B7D
:10072800A8EE069B28EE086BB0EE480BA6EE079BDA
:1007380008F0CEFBB0EE406BB0EE480BB1EE001BFC
:100748009FED277BB0EE498BA6EE078B08F0C0FB28
:10075800631C2E4ADBB2B2EE047B02EBC402072B09
:100768009FED216BA0EE068B28EE078B82ED008BA8
:1007780000D100232B70B2E707EE103A9FED0E6B05
:10078800B8EEC77B9FED0E0B27EE067B9FED181B7F
:1007980027EE000B08F09CFB1C4B0122B2EE047BF9
:1007A8002A709FED156B20EE060B20EE070B83EDEC
:1007B800000B94E7AFF300806666666666660A40DB
:1007C800000000000000F03E00000000006051C082
:1007D8003333333333F340406666666666264F40EC
:1007E80066666666666639C0A4703D0AD7A30E4081
:1007F80021B0726891EDF0BF295C8FC2F5282840BE
:10080800002102404402002080020020480200200B
:100818000146034B0122034833F8111004F0ACBB26
:1008280054000020000C02580146034B00220348E4
:1008380033F8111004F0A0BB54000020000C02583B
:100848002DE9F047194E0024DFF86CA0002530464A
:10085800DFF8689007F014FBDFF8648051464FF426
:100868007A730322124F304607F0A0F90520C9E930
:100878000045C8E90045C7E9004506F0F5F95146C5
:1008880003224FF47A73304607F090F90520C9E93E
:100898000045C8E90045C7E9004506F0E5F93046D6
:1008A80021220449BDE8F04708F0E2B9A809002070
:1008B800A0020020A8020020600000209002002072
:1008C8009802002008B5FFF7BBFF21220249034820
:1008D800BDE8084008F0CCB9A8020020A80900200B
:1008E800026838B53C4B9A4200D038BD3B4B1A7869
:1008F800532A47D13A4A3B49D2E900459FED2E5B3E
:10090800C1E9004598795B7943EA002307EE103A7C
:10091800BAEEE87B9FED2A6B27EE057B82ED007B24
:1009280092ED007B91ED005B37EE457BB4EEC67B24
:10093800F1EE10FA1CDC92ED007B91ED005B9FED6F
:10094800226B37EE457BB4EEC67BF1EE10FA08D584
:10095800254B9FED1F6B93ED007B37EE467B83EDB8
:10096800007B21221D492148BDE8384008F080B9A4
:100978001D4B9FED176B93ED007B37EE067B83EDE8
:10098800007BEEE71A4C2378552B0AD0174D4FF40D
:100998007A7301222146284607F082F92378552BDD
:1009A800F5D1642321220D4923701048BDE8384051
:1009B80008F05EB9AFF300800000000000806640D8
:1009C8000000000000406F400000000000406FC0C1
:1009D800000000000080764000100140A8020020BE
:1009E800A00200209802002090020020A809002000
:1009F8005C000020044A054B92ED000B93ED007B50
:100A080030EE470B704700BFA00200209002002084
:100A180008B5FFF715FF0248BDE8084006F0ACBA74
:100A28003C0A0020014806F0F9BA00BF3C0A002041
:100A380010B52DED048B9FED569B9FED578B82B023
:100A480014245748B0EE495B5649B0EE484B564A15
:100A5800564B90ED003B91ED002B92ED001B93ED72
:100A6800000B534A534B54495448009400F0EEF994
:100A780053485449B0EE495B534AB0EE484B534B88
:100A880090ED003B91ED002B92ED001B93ED000BD8
:100A98004F4A504B50495148009400F0D7F95048FC
:100AA8005049B3EE095B504ABBEE094B4F4B90EDF2
:100AB800003B91ED002B92ED001B93ED000B4C4A8F
:100AC8004C4B4D494D48009400F0C0F94C484D49F5
:100AD800B3EE095B4C4ABBEE094B4C4B90ED003B27
:100AE80091ED002B92ED001B93ED000B484A494B0A
:100AF80049494A48009400F0A9F949484949B3EEE0
:100B0800095B494ABBEE094B484B90ED003B91ED20
:100B1800002B92ED001B93ED000B454A454B4649CF
:100B28004648009400F092F945484649B3EE095BFF
:100B3800454ABBEE094B454B90ED003B91ED002B30
:100B480092ED001B93ED000B414A424B424943484A
:100B5800009400F07BF942484249B3EE095B424AEF
:100B6800BBEE094B414B90ED003B91ED002B92ED14
:100B7800001B93ED000B3E4A3E4B3F493F48009413
:100B880000F064F902B0BDEC048B10BDAFF3008037
:100B980000000000000049400000000000000000C4
:100BA800A0000020A8000020B0000020B80000200D
:100BB800F0060020E8060020F806002000070020C4
:100BC80050060020580600206006002098000020EB
:100BD800400600203806002048060020680600204D
:100BE800A0050020A8050020B005002090000020E6
:100BF800900500208805002098050020B8050020F1
:100C0800F0040020F80400200005002088000020DF
:100C1800E0040020D8040020E80400200805002093
:100C280048040020500400207800002080000020A4
:100C3800380400203004002040040020580400201C
:100C480098030020A0030020A803002070000020C3
:100C5800880300208003002090030020B0030020B8
:100C6800E8020020F0020020F802002068000020BE
:100C7800D8020020D0020020E0020020000300205B
:100C880010B5084C204606F029F90021204606F048
:100C980085FA2046042106F081FABDE81040FFF7E6
:100CA800C7BE00BF6C0B002038B50446194D642C34
:100CB800286819DC14F1640F0FDA4FF47A740122F2
:100CC800802104F059F900224FF48071286804F05B
:100CD80053F9114B1B685C6338BD002C0CDD04EB29
:100CE80084046400A4B201E04FF47A7400228021E5
:100CF80004F042F90122E7E705D12246802104F0F9
:100D08003BF92246E0E7644204EB84046400A4B2A1
:100D1800D5E700BFC00000206C0B002038B50446A2
:100D28001A4D642C28681ADC14F1640F10DA4FF499
:100D38007A7400224FF4805104F01EF901224FF416
:100D48000051286804F018F9114B1B689C6338BDE2
:100D5800002C0DDD04EB84046400A4B201E04FF420
:100D68007A7401224FF4805104F006F90022E6E774
:100D780006D122464FF4805104F0FEF82246DEE701
:100D8800644204EB84046400A4B2D2E7C0000020EB
:100D98006C0B002000000000154B02681B689A428B
:100DA80000D0704710B5FFF725FE124A124B1348C2
:100DB8009FED0D7B82ED000B83ED007B00F066F864
:100DC8000F4B93ED007BFDEEC77B17EE904AC4F105
:100DD8001900FFF769FF04F11900BDE81040FFF79B
:100DE8009DBF00BFAFF300800000000000000000BE
:100DF8003C0A002040040020300400205804002051
:100E08003804002070B50F4D002280210E4E28684E
:100E1800002404F0B1F800224FF48071286804F02F
:100E2800ABF833684FF4805122465C63286804F0BD
:100E3800A3F822464FF40051286804F09DF833685F
:100E48009C6370BDC00000206C0B002010B4C0E98A
:100E580000121C46002200230199846001655DF898
:100E6800044B80ED040B80ED061B80ED082B80ED14
:100E78000A3B80ED0C4B80ED0E5BC0E91623C0E900
:100E88001823C0E91A23C0E91C23704710B504468B
:100E98002DED048B05F0E2FED4E91423C31A9A421F
:100EA80007D9636893ED000BBDEC048B84ED1E0B32
:100EB80010BD2268B6EE001BA16807EE903A92EDCD
:100EC800006B91ED002B94ED063BB8EE677B32EE9C
:100ED800462B23EE011B94ED165B94ED184B21EE87
:100EE800071BA7EE025B32EE044B94ED046B22EE77
:100EF800066BA1EE045B94ED124BB4EEC45B84ED7B
:100F0800165BF1EE10FA46DD84ED164B94ED0A9B64
:100F1800B0EE008B6368B0EE475BA3EE046B99EE0E
:100F2800085BA9EE087B94ED1A3B94ED081B92ED43
:100F3800004B25EE035B31EE010B94ED1C3B34EEC8
:100F4800434BA0EE045BB1EE455B85EE074BA1EE8B
:100F5800046B84ED1A4B83ED006B94ED0E7BB4EEBD
:100F6800C76BF1EE10FA06DC94ED0C7BB4EEC76BA0
:100F7800F1EE10FA01D583ED007B92ED007B84ED54
:100F8800182BBDEC048B84ED1C7B93ED000B606586
:100F980084ED1E0B10BD94ED104BB4EEC45BF1EE66
:100FA80010FAB1D4B0EE454BB0E700BFF8B5074C26
:100FB800074D084F04F10A0634F8021B386803F09D
:100FC800D5FFB44205F8010BF6D1F8BDCC000020DE
:100FD80084070020D800002070B50A4E0A4D3188D9
:100FE800286803F0C3FF0346084CB3FA83F37188FB
:100FF80028685B09237003F0B9FFB0FA80F0400954
:10100800607070BDC4000020C80000208007002068
:10101800054A08B5054B32F81010186803F0A6FF0A
:10102800B0FA80F0400908BDC4000020C8000020C4
:1010380010B5A0B04C2200210CA8FFF7C1FA20225D
:10104800002104A8FFF7BCFA022005F0C1FC384BC8
:101058000021384A0191D96A21F00101D962DB6A7D
:1010680003F001030193936943F440439361936947
:1010780003F440430193019B93699904FCD52E4BDB
:10108800D3F8F41041F00201C3F8F4100021D3F8AA
:10109800F43003F002030293029B03919169244BFD
:1010A80041F440419161926902F440420392D96A45
:1010B800204A41F00101D962DB6A03F0010303937E
:1010C800039B93699B04FCD53C22032402230CA8B0
:1010D800CDE917420C229FED147BCDE91533CDE9FC
:1010E8001933CDE91B3200238DED0C7BCDE91D337F
:1010F80001F09AFC034608B172B6FEE73F21402290
:101108000594082406934FF48063049104A80421ED
:101118000B92CDE90742CDE9092302F005F808B1A1
:1011280072B6FEE720B010BD01000000000001000B
:10113800000400580048025800440258F0B5002442
:101148009DB00126AA4D0227CDE91144CDE91344EB
:1011580005F0D4FC48F21F7311A8ADF84460CDE93E
:10116800124340F20113149305F0E6FC042005F045
:10117800D3FC05F037FDFFF75BFF159422464FF4CB
:1011880046519C48CDE91144CDE91344D5F8E030E7
:1011980043F01003C5F8E030D5F8E03003F0100351
:1011A8000193019BD5F8E03043F08003C5F8E030A7
:1011B800D5F8E03003F080030293029BD5F8E030C5
:1011C80043F00403C5F8E030D5F8E03003F0040339
:1011D8000393039BD5F8E0303343C5F8E030D5F8E6
:1011E800E03033400493049BD5F8E03043F0020329
:1011F800C5F8E030D5F8E03003F002030593059B0D
:10120800D5F8E03043F00803C5F8E030D5F8E03011
:1012180003F008030693069B03F0AEFE22460F2157
:10122800754803F0A9FE7C2311A972481397CDE9EC
:10123800113403F059FD4FF4465311A96D48119329
:101248001494CDE9126403F04FFD0F2311A96A48E5
:1012580011931494CDE9126403F046FD4FF0030E88
:101268004FF4881311A963481394CDE911E303F0EF
:101278003BFDD5F8D8303146224633430B20C5F81C
:10128800D830D5F8D8305D4D33400093009B05F039
:10129800D5FB0B2005F00EFC4FF0804311A9284622
:1012A8002B604FF0FF33129714940A9411961396FB
:1012B80017962C61AC61EB60CDE91544CDE9184473
:1012C800CDE90B44C5E9014406F088F808B172B6C7
:1012D800FEE703460AA928460A930C9306F0C0FBCA
:1012E800034600BB464C4FF4807517902377636321
:1012F80084F83830E660E6630426A5822661C4E9EE
:101308000933C4E90B333F4B23600723CDE91100B0
:10131800CDE91300CDE915002046A36101F0FCF9E1
:1013280018B172B6FEE772B6FEE74FF43013A0604C
:101338002046636001F0F0F908B172B6FEE70623B3
:10134800314F4FF0050C8DF85D0011A9CDE91173EF
:1013580040F2FF73CDE915602046CDE913C300F0D4
:10136800FBFD08B172B6FEE7284E0C2311A92046F2
:10137800CDE9116300F0F0FD08B172B6FEE724482C
:10138800122311A9CDE91103204600F0E5FD08B1AB
:1013980072B6FEE71F4918232046CDE9111311A99B
:1013A80000F0DAFD08B172B6FEE71B4B11A9204622
:1013B8001295119300F0D0FD08B172B6FEE7174AF6
:1013C8004FF48373204611A9CDE9112300F0C4FD21
:1013D80008B172B6FEE7124A4FF4867311A908489D
:1013E800CDE9112300F0B8FD0446D8B172B6FEE786
:1013F8000044025800100258000C0258200B00202C
:10140800B80B0020002102402000F0141000C0108A
:101418000800900C0080F03E0040C03A0008302ED2
:101428000004002A2C22014607901090AC4DCDE90B
:101438000A00CDE90C00CDE90E00CDE9080011A89D
:10144800FFF7BEF81823A74A2846AC60AC61C5E987
:10145800002340F2E733C5E90444EB6005F0F8FDEA
:1014680008B172B6FEE7CDE90700099007A928463A
:1014780006F0F6FA024608B172B6FEE760230D9050
:1014880010900AA90A93CDE90B00CDE90E00284671
:1014980006F0CCF908B172B6FEE704220AA928467C
:1014A80006F0C4F908B172B6FEE74FF4005211A96C
:1014B800CDE915024FF00072CDE91100CDE9130016
:1014C800CDE91700CDE91A002846199206F022FB4B
:1014D800044608B172B6FEE72846834D00F09CFA30
:1014E8002022214612A8FFF76BF8804B11A9284645
:1014F8002B604FF0FF330C94AC61C5E90334012332
:10150800CDE90A44119313931793C5E9014405F0F3
:1015180065FF034608B172B6FEE70AA928460A9392
:101528000C9306F09DFA034608B172B6FEE7704CBC
:10153800704AA06022604FF4E132A06162600C2220
:10154800C4E90300C4E9070020466261C4E909331D
:1015580007F00AFB014608B172B6FEE7204607F01D
:10156800CFFB08B172B6FEE70021614807F00AFC1C
:1015780008B172B6FEE75E4807F0A4FB08B172B680
:10158800FEE75D4C5D4A0C9022604FF47A6217903A
:1015980062604FF6FF72A0602061A061E260CDE951
:1015A8000A00CDE91100CDE91300CDE91500204668
:1015B80005F04EFD034608B172B6FEE70AA92046BB
:1015C8000A930C9306F04CFA024608B172B6FEE78D
:1015D8007023159011A91193CDE91200204606F049
:1015E80025F9054608B172B6FEE72046444E00F0DC
:1015F80013FA444B30461395336045F6C053B56033
:101608007360C723B561F360CDE9115505F0C0FBE0
:10161800034608B172B6FEE711A930461193139339
:1016280006F01EFA054608B172B6FEE7FEF7F4FFAB
:1016380029462046022405F0B1FD4FF4C872294618
:101648003148FEF7BDFFFFF71BFBFFF731F8FFF747
:10165800F7F8FFF737F9FFF70FF80020FFF7D8F88A
:10166800C82005F001FB0020FFF7DEF80120FFF796
:10167800CFF8C82005F0F8FA0120FFF7D5F80220C6
:10168800FFF7C6F8C82005F0EFFA0220FFF7CCF8FC
:101698000320FFF7BDF8C82005F0E6FA0320FFF79E
:1016A800C3F8012C4FF00104D7D1184E184D194C2E
:1016B8000020FFF7ADFC78B3FFF7AAF9FEF7ECFFBF
:1016C8003060FEF7EFFF2860FFF794F984ED000B18
:1016D800FFF76CFCFFF780FC642005F0C5FAE7E72C
:1016E8006C0B002000000140880A0020000C00401C
:1016F800A809002000100140D40A0020000400407E
:101708003C0A002000140040A00700209007002099
:101718008C070020980700200120FFF779FC00289B
:10172800CCD0FEF77FFFFFF77DF9FFF76BFBC5E72E
:1017380072B6FEE7074B82B0D3F8F42042F00202FB
:10174800C3F8F420D3F8F43003F002030193019BAB
:1017580002B070470044025810B5BAB000210446E0
:10176800C0220AA80891CDE90411CDE90611FEF7B7
:1017780027FF3B4B22689A4201D03AB010BD9FED3B
:10178800367B0223202181220AA80E930C910F9305
:101798000D9210938DED0A7B01F0A4FF002856D11D
:1017A800304B132003210024D3F8D82042F0200224
:1017B800C3F8D820D3F8D82002F020020092009A6B
:1017C800D3F8E02042F00402C3F8E020D3F8E02088
:1017D80002F004020192019AD3F8E02042F00102DB
:1017E800C3F8E020D3F8E02002F001020292029A46
:1017F800D3F8E02042F00202C3F8E020D3F8E0304A
:10180800069403F00203CDE90401039304A91648E2
:10181800039B03F069FA4C22032304A91348069496
:10182800CDE9042303F060FA0323022204A9104837
:101838000694CDE9042303F057FA224621461220E4
:1018480005F0FCF8122005F035F93AB010BDFFF7A5
:101858006FFFA5E7AFF3008000000800000000005C
:1018680000210240004402580008025800000258B3
:1018780000040258134A82B00368934213D0124AF4
:10188800934201D002B07047104BD3F8E82042F0E1
:101898000202C3F8E820D3F8E83003F0020301930A
:1018A800019B02B07047094BD3F8F02042F00102C7
:1018B800C3F8F020D3F8F03003F001030093009B45
:1018C80002B0704700000140000400400044025884
:1018D800036830B5B3F1804F8DB04FF00004CDE907
:1018E8000644CDE908440A9404D0354A93423ED0D0
:1018F8000DB030BD334B01253348D3F8E82042F012
:101908000102C3F8E820D3F8E82002F001020192AE
:10191800019AD3F8E02042F00102C3F8E020D3F89E
:10192800E02002F001020292029AD3F8E02042F08D
:101938000202C3F8E0204FF40042D3F8E0300A95E1
:1019480003F0020303930223039906A9CDE90623B2
:1019580003F0CAF90822022306A91C480692CDE919
:101968000734CDE9094503F0BFF90DB030BD154B7B
:10197800022406A91448D3F8E82042F00802C3F864
:10198800E820D3F8E82002F008020492049AD3F879
:10199800E02042F00102C3F8E020D3F8E0300A94D6
:1019A80003F001039FED047B0593059B8DED067BFA
:1019B80003F09AF90DB030BD0300000002000000EA
:1019C800000C00400044025800000258000402586D
:1019D8000F4B02689A4200D070470E4B3720002206
:1019E800022110B5D3F8E84082B044F02004C3F8CF
:1019F800E840D3F8E83003F020030193019B05F099
:101A08001DF8372002B0BDE8104005F053B800BFFC
:101A1800001400400044025825490023026810B50C
:101A28008A4288B0CDE90233CDE90433069304D065
:101A3800204B9A421AD008B010BD1F4B012402A9AE
:101A48001E48D3F8E02042F01002C3F8E020D3F893
:101A5800E030069403F010039FED117B0093009B88
:101A68008DED027B03F040F908B010BD124B022443
:101A780002A91348D3F8E02042F00402C3F8E0209A
:101A8800D3F8E030069403F004039FED077B01933D
:101A9800019B8DED027B03F027F908B010BD00BF54
:101AA800000A0000020000004000000002000000E0
:101AB8000000014000040040004402580010025891
:101AC8000008025830B5B9B000210446C02208A861
:101AD8000691CDE90211CDE90411FEF771FD2F4BF6
:101AE80022689A4201D039B030BD0122002308A8EB
:101AF800CDE9082301F0F6FD002848D1284B042041
:101B080002A9D3F8F02042F01002C3F8F020D3F86D
:101B1800F02002F010020092009AD3F8E02042F080
:101B28000202C3F8E0204FF44042D3F8E0300690B8
:101B380003F002031B4801930223019D1A4DCDE9CE
:101B4800022300220023CDE9042303F0CDF8292243
:101B58001649002328466B62C5E900124FF48062DB
:101B6800C5E90233C5E905332A61C5E9073303F03E
:101B7800EFFA78B9002201212520C4F88050AC631F
:101B880004F05CFF252004F095FF39B030BDFFF765
:101B9800CFFDB3E7FFF7CCFDECE700BF0010014035
:101BA8000044025800040258300900201000024086
:101BB800FEE700BFFEE700BFFEE700BFFEE700BF8D
:101BC800FEE700BF704700BF704700BF704700BF07
:101BD80005F038B8014804F0A5BB00BF3009002063
:101BE800014800F07DB800BFB80B0020014806F09E
:101BF80057BA00BFA8090020014805F029BD00BF59
:101C08003C0A00202749284AD1F8883043F4700359
:101C180010B4C1F88830136803F00F03062B05D8F9
:101C2800136823F00F0343F0070313601F4B0024CE
:101C38001F4A19681C4841F0010119601C611968A4
:101C48000A401A6003681B0705D5036823F00F03D1
:101C580043F007030360154B00221649164C17483A
:101C68009A61DA611A629C62D86219635A6399634D
:101C7800DA6319645A641868114C20F480201149F9
:101C880018601A6623681940B1F1005F03D20E4B41
:101C98000122C3F808210D4B43F2D2025DF8044B30
:101CA8001A60704700ED00E000200052004402581E
:101CB8007FEDF6EA80020101000202020000FF0146
:101CC8000010005C0000FFFF00800051004000523F
:101CD8000368186C704700BF704700BF704700BFAB
:101CE800F8B58E4A0446036893421D685E6800F0A2
:101CF800958002F58072934200F09080884A976838
:101D0800A90707F01F0702D5B20700F1AA806907E3
:101D180079D5720777D5626DD20603D4626D42F425
:101D280000726265DA6812F4406F1CD17D4A9342F2
:101D380000F0E780DA68910415D41A68120712D502
:101D48009A68500700F1F2805A6822F00C025A6033
:101D5800636D23F480736365636DD90403D4636D85
:101D680043F0010363652046FEF7B2FC23680C22AA
:101D78001A60AA064DD5B0064BD5626DD00603D4BD
:101D8800626D42F4005262656649DA6C8B42D8682B
:101D980002F4C07273D0D968D2B98A0100F1A9805F
:101DA8001A68500614D5890212D49A68120700F1ED
:101DB800C8805A6822F060025A60636D23F4805329
:101DC8006365636DD80503D4636D43F001036365F0
:101DD800204600F0ADFD236860221A60290601D56F
:101DE80032065FD4E80501D5F10566D4AA0501D508
:101DF800B0054BD4E90601D5F20611D4690501D521
:101E0800720566D4F8BD2807B3D5310783D4AA066E
:101E1800B1D46906E2D57206E0D5AEE7424A6EE76C
:101E2800226B7AB1002F75D03C4A934200F087802C
:101E380002F58072934200F08280394A926812F467
:101E4800404F0BD0636D204643F480636365A36DF8
:101E580043F00203A365FFF741FF236810221A60CD
:101E6800CCE7636DD80603D4636D43F40063636500
:101E7800204600F065FD236802221A6047E7C12169
:101E8800F940C90787D42549C96885E7636D2046A5
:101E980043F48023636500F051FD23684FF400721A
:101EA8001A60A7E7636D204643F480336365FFF744
:101EB80013FF236880221A6094E7636D204643F479
:101EC8000033636500F038FD23684FF480721A60B0
:101ED8008CE7626D4FF48061204642F4804262656F
:101EE800A26D42F00802A2651960BDE8F84000F052
:101EF80021BD00F4406001F4005202437FF468AF52
:101F08004EE740F22122FA40D0073FF513AF034ACB
:101F1800D26810E7DA689007A0D093E70020024063
:101F2800006302580021024000230240636D43F021
:101F380010036365A36D43F00103A36513E7054A26
:101F48007CE7636D43F010036365A36D43F0010301
:101F5800A3653DE700230240F0B5002283B001925B
:101F680090F85020012A00F03881012402680346C5
:101F780080F850409068450709D55A6D012042F015
:101F880020025A65002283F8502003B0F0BD0D6886
:101F9800002D4FEA95600DDBC5F31306002E00F007
:101FA8009A8095FAA5F515B1B5FA85F5AC40D569CD
:101FB8002C43D4614C684FF01F0C02F1300E00F036
:101FC8001F00A50904EA0C0405F00C050CFA04FC32
:101FD800A0405EF8054024EA0C0C4CEA00004EF8DC
:101FE8000500906810F0040F906801D100071AD519
:101FF8009068C70715D4CE680C6806F01807BD4866
:10200800D2F8C050F840C4F31307204025EA07056A
:102018002843C2F8C000B848864200F09180002CDE
:102028005BDB0020AEE70C6802F1140C4FF0070EE2
:102038008E68E50DC4F3045405F004050EFA04FE99
:1020480006FA04F45CF8050020EA0E0020434CF878
:102058000500AA484D69006800F07040B0F1805F43
:10206800D06868D010F0100FD06864D0400800F035
:10207800080085400E690868042E00F0B18002F15E
:10208800600C00F0F8445CF8260000F000402043A3
:1020980028434CF826004C7E0D69A4F101045CF835
:1020A8002500B4FA84F420F00040640940EAC470C2
:1020B8004CF82500087E0D69A0F10100146905F0AF
:1020C8001F05B0FA80F024F4F0444009C002A8408B
:1020D800204310618CE7844069E789498A4200F00F
:1020E800BE8001F580718A4200F0B98001F1C051CB
:1020F800844D01F584418868AE68F6073FF53DAF29
:10210800814E00F0E077B44200F006817F4EB44281
:1021180000F0E2807E4DAC4283D1400281D4794800
:1021280082427FF47EAF8A6822F0E0723A4342F43A
:1021380080028A6075E7C0F382004000854099E715
:10214800002F69D094FAA4F0002800F0A180B0FA1A
:1021580080F0013000F01F00092840F2998094FABD
:10216800A4F0002800F0FE80B0FA80F0013080066C
:1021780000F0F84094FAA4F5002D00F0F180B5FACB
:1021880085F50126013505F01F0506FA05F52843F2
:1021980094FAA4F4002C00F0E180B4FA84F46FF00F
:1021A8001D06651C032405F01F0514FB05642405A2
:1021B80044F00074204302F114060727C50DC0F34C
:1021C800045005F004058740745924EA07048F6811
:1021D80087403C4374510C6821E7022003B0F0BDEE
:1021E800156E840605F0F845B5EB806F32D0506E59
:1021F80000F0F840844228D0906E00F0F840844205
:102208001ED0D06E00F0F84084427FF4F1AED06E5C
:1022180020F00040D066EBE6A40E0120013404F063
:102228001F05A406A84004F0F844092D40EA04005C
:1022380005EB45044ED91E3C240544F00074B9E76B
:10224800906E20F000409066DBE7506E20F0004072
:102258005066D1E7106E20F000401066C7E7284DA1
:102268002C4905F58075886855F8F86CAD68ED0758
:102278003FF583AEF7073FF580AE234DAC423FF400
:10228800D0AE224DAC423FF4CCAE00F0E07741E74F
:1022980094FAA4F000286DD0B0FA80F001308006DE
:1022A80000F0F84094FAA4F5002D61D0B5FA85F550
:1022B8000126013505F01F0506FA05F5284394FAAD
:1022C800A4F4002C51D0B4FA84F4013404F01F04AF
:1022D80004EB440424056DE7C4013FF5A2AEAA420D
:1022E8007FF49FAE8A6822F0E0723A4342F080722F
:1022F8008A6096E6FFFF0F000000FF470010005CB1
:102308000020024000600258000084CB000052C741
:102318000000B8CF0023024006023FF582AEAA4271
:102328007FF47FAE8A68154822F0E0723A4342F49F
:1023380000028A60026812499209A1FB02129209FE
:10234800013252000192019A002A3FF46AAE019AC2
:10235800013A0192019A002AF9D162E6094C29E76B
:10236800022514E74FF0806004E74FF4401421E79A
:102378000225A3E74FF0806094E700BFE00000204B
:10238800632D3E05000050FE03689A68D10701D509
:10239800002070479968234A114270B504462FD12E
:1023A8009968214A0A4042F001029A6004F056FCFA
:1023B80023681E4A054693422CD002F58072934248
:1023C80028D002F1C05202F5844292681A68D207F6
:1023D80014D4154E9A68D00704D49A68324042F053
:1023E80001029A6004F03AFC431B022B236802D9CD
:1023F8001A68D10704D51A68D207EBD5002070BD3A
:10240800636D012043F010036365A36D43F001037E
:10241800A36570BD064A9268D606D7D0054A93428E
:10242800D4D1EBE73F000080C0FFFF7F00200240CF
:102438000023024000210240534A0368934270B5CA
:10244800044665D002F58072934261D04F4A96687F
:102458009D6815F0040561D194F85030012B5DD0CA
:102468000123204684F85030FFF78EFF002857D10B
:10247800636D06F01F06464A1A40236842F48072CC
:102488006265444A93424ED01946626D22F4801226
:102498006265626D12F4805263D0A26D22F006026A
:1024A800A2651C2225691A600022082D84F8502094
:1024B8005A6822F01C025A605A680CBF42F008029F
:1024C80042F004025A60226B1AB95A6842F01002AC
:1024D8005A608B422BD040F22122F240D60726D4F4
:1024E800626D42F480126265CA6892010FD5626D0E
:1024F800082D22F4405242F4805262655A683AD05C
:1025080022F040025A605A6842F020025A6070BDB8
:10251800214A96689D6815F004059DD0022070BD7B
:1025280084F8505070BD1849002EB2D1ADE7DA6872
:1025380091010FD5626D082D22F4405242F4805269
:1025480062655A680FD022F040025A605A6842F019
:1025580020025A609968114A0A4042F004029A60BF
:1025680070BDA2659DE722F020025A605A6842F0C9
:1025780040025A60EEE722F020025A605A6842F0A0
:1025880040025A6070BD00BF00200240006302583C
:10259800FEF0FFFF0021024000230240C0FFFF7F42
:1025A80038B5564A04460368934225D002F580722E
:1025B800934221D0524B9B6813F4403F21D000F046
:1025C800DDFE63680546B3F5003F00F08680B3F58D
:1025D800403F6FD0B3F5803F7FD004F057FB41F206
:1025E800030398424BD8474A236895422AD99A68E8
:1025F80042F480729A6038BD434B9B6813F4403FA5
:10260800DDD14FF40020002102F0A6F963680546E9
:10261800B3F5101F6BD008D8B3F5E01F54D016D906
:10262800B3F5001FD9D14509D7E7B3F5201F49D025
:10263800B3F5301FD1D104F029FB41F203039842CE
:102648002ED823689A6822F480729A6038BDB3F550
:10265800801F06D00AD9B3F5A01F02D0B3F5C01F5A
:10266800BBD19B0C5B00B5FBF3F5B6E7B3F5002FC8
:10267800F7D023F40022B2F5802FF2D0ADE7234A39
:102688002368954211D9224A95421FD9214A954279
:102698009A682ED822F4407242F400729A6038BDCB
:1026A8001A4BB3EB152F236810D39A6822F44072A3
:1026B8009A6038BD850804F0E9FA41F203039842AC
:1026C800DDD890E7C50988E7050986E79A6822F406
:1026D800407242F480729A6038BD1B0CB5FBF3F56A
:1026E80004F0D4FA41F203039842C8D87BE785097D
:1026F80073E742F440729A6038BD00BF0020024080
:1027080000630258002D31010023024021BCBE00A5
:1027180041787D0181F0FA0270B5002382B00193FF
:10272800002800F0A980456D0446002D00F0AA801D
:10273800226893689E0003D59168714B0B409360A3
:102748009368DD0016D46F4B6F491B6890689B092E
:10275800A1FB03136D499B090140013341F08051EE
:1027680091600193019B2BB1019B013B0193019B5C
:10277800002BF9D19368D80000F18280636D0125A0
:1027880043F010036365A36D2B43A365936813F0AF
:10279800040F636D6CD1D9066AD4636D23F4817319
:1027A80043F0020363659368DB070CD4584B9A42E5
:1027B80000F0818003F580739A427CD0554B9B686A
:1027C800D90740F1898004F061FA41F20303A16856
:1027D8009842237F5CD894F815C01A04206B42EA0B
:1027E8004C3202430A43012B03D1236A013B42EADC
:1027F8004342636A23B103F47873A16A0B431A4313
:1028080023684549D86801401143D9609A6812F095
:10281800040F9A681CD112071AD4D8683F4A217D40
:10282800024042EA8132E16A0A43DA6094F83820C9
:10283800012A53D01A6922F001021A611A69204646
:10284800616B22F070420A431A61FFF7A9FE236800
:10285800E268012A27D01A6B22F00F021A63636D0F
:10286800284623F0030343F00103636502B070BDFB
:10287800636D43F0100363650125284602B070BDFF
:10288800002583E7FEF768FFA56584F850504FE7F9
:102898001029A0D1617D1A0442EA4132216B0A4312
:1028A80042F01C029FE7196BA26921F00F01013A5F
:1028B8000A431A63D3E7164A194B92689B68DE07E6
:1028C80081D4D0073FF57FAF164A9368616823F437
:1028D8007C130B43936076E7134AF6E7D4E90F12AB
:1028E800666C01391869324342EA0142A16C0A4315
:1028F8000E4901400A4342F001021A619EE700BFF7
:10290800C0FFFF5FE0000020632D3E05C0FFFF6FA2
:10291800002002400060025803C0F0FFFCBFFFFF28
:102928000021024000230240006302581EF800FC08
:10293800704700BF704700BF704700BF704700BFB7
:10294800704700BF334B30B4996A9C6ADD6A14F44F
:102958007C7F5A6BC4F3051036D0C2F3CC0205F065
:10296800010501F0030107EE900A05FB02F20129B7
:10297800B8EEE77A06EE902AFAEEE96A02D0022962
:1029880042D019B3DFED247A87EE876A1B6BC3F355
:10299800080307EE903AF7EE005AF8EEE77A77EE7A
:1029A800A67A77EEA57A67EE867A1A4B1B6BC3F385
:1029B8004623013307EE103AF8EEC76A87EEA67A87
:1029C800FCEEC77A17EE900A30BC70471A68920678
:1029D8001DD51968F7EE005A104A1B6BC1F3C101E7
:1029E800C3F30803CA4007EE903A06EE102AF8EE41
:1029F800E77AB8EEC66A77EEA66AC6EE077A36EECA
:102A0800A57A67EE877AD0E7DFED057ABCE7DFEDD8
:102A1800057AB9E7004402580024744A0090D003AC
:102A2800001B374C0024744C002800F0E982F8B5EC
:102A380003680446D9072ED597490A69896A02F0BE
:102A48003802102A00F0EE80182A00F0E680636849
:102A5800B3F5803F00F01181002B00F06781B3F5DA
:102A6800A02F8D4B1A6800F08A8222F480321A60F7
:102A78001A6822F480221A6004F0F0F8864E05469F
:102A880005E004F0EBF8401B642800F24D81336840
:102A98009B03F6D523689D0770D4D90633D57E4AA3
:102AA8001369926A03F03803082B00F0CB80182BC7
:102AB80000F0C380E369784D002B00F06F812B682C
:102AC80043F080032B6004F0C9F8064605E004F0E3
:102AD800C5F8801B022800F227812B68DB05F6D594
:102AE80004F0D4F841F20303984200F26982226AA2
:102AF8006B68202A23F0F8430CBF43F0804343EA75
:102B080082636B6023681D0716D56369624D002BCD
:102B180000F022816B6F43F001036B6704F09EF8AD
:102B2800064605E004F09AF8801B022800F2FC80B3
:102B38006B6F9807F6D523689A0616D5A369564D84
:102B4800002B00F01A812B6843F480532B6004F0AB
:102B580085F8064605E004F081F8801B022800F29B
:102B6800E3802B689F04F6D52368590700F18B8012
:102B7800636A002B40F0BF800020F8BD464A136905
:102B8800926A13F038032DD1434BE2681B6859074A
:102B980001D5002A4FD0404D2B6823F01903134369
:102BA8002B6004F05BF8064605E004F057F8801B3C
:102BB800022800F2B9802B685B07F6D504F066F8A6
:102BC80041F20303984200F2108122696B68402A9F
:102BD80023F47C330CBF43F4003343EA02336B60C5
:102BE80023685AE7182B00F0FC802B4DE2682B680D
:102BF800002A00F0E58023F0190313432B6004F04A
:102C08002DF8064605E004F029F8801B022800F29A
:102C18008B802B685F07F6D5D0E701F00301022906
:102C28007FF415AF1C4A126892037FF534AF6268CF
:102C3800002A7FF430AF0120F8BD02F00302012A18
:102C48007FF438AF144B1B68DA0502D5E369802B93
:102C5800F1D104F01BF841F20303984200F2CE8050
:102C6800226A202A00F0BB810B494B6823F0F84305
:102C780043EA82634B60236845E7074A136843F4D5
:102C880080331360F8E6054D2B6843F480732B609E
:102C980003F0E4FF064608E00044025800480258E2
:102CA80003F0DCFF801B64283ED82B68DA05F7D5D3
:102CB800A368012B00F08D81002B00F06881052BA3
:102CC800854B1A6F00F0948122F001021A671A6F7F
:102CD80022F004021A6703F0C1FF7F4E41F28837E1
:102CE800054604E003F0BAFF401BB8421CD8336F16
:102CF8009B07F7D53CE7784D2A6902F03802182A75
:102D080000F0F080022B2B6823F080732B607FD0BB
:102D180003F0A4FF04462B689B017FF52DAF03F059
:102D28009DFF001B0228F6D90320F8BD6A4D2B68C9
:102D380023F480332B602B6823F480232B6003F06B
:102D48008DFF064604E003F089FF801B6428EBD85A
:102D58002B689F03F7D49DE66B6F23F001036B6725
:102D680003F07CFF064604E003F078FF801B02288E
:102D7800DAD86B6F9907F7D4DDE62B6823F4805314
:102D88002B6003F06BFF064604E003F067FF801B2F
:102D98000228C9D82B689804F7D4E5E62B6823F0F5
:102DA80080032B6003F05AFF064604E003F056FF49
:102DB800801B0228B8D82B68DF05F7D42368A2E661
:102DC80023F001032B6003F049FF064604E003F0FB
:102DD80045FF801B0228A7D82B685807F7D423681B
:102DE8005BE690077FF401AFCEE66B68226923F0BB
:102DF800FE4343EA02636B6023684EE6364A216A63
:102E0800D36823F07C5343EA0163D36023687AE6EE
:102E180003F024FF064604E003F020FF801B02288D
:102E280082D82B689901F7D4A96A2C4BA26A0B4067
:102E38002B49294E1343E26A43EA0213AB62D4E9F1
:102E48000D32013B013A5B0212049BB202F4FE020E
:102E58001343226B013AC2F308021343E26B013AAF
:102E6800120602F0FE4213432B63EB6A23F00103C0
:102E7800EB626A6BA36C114041EAC3016963EB6AB8
:102E8800226C23F00C031343EB62EB6A626C23F0B1
:102E980002031343EB62EB6A43F48033EB62EB6AA1
:102EA80043F40033EB62EB6A43F48023EB62EB6A92
:102EB80043F00103EB622B6843F080732B6003F04F
:102EC800CDFE044633689A013FF556AE03F0C6FEC0
:102ED800001B0228F6D927E7004402580CFCFFFF24
:102EE8000700FFFF012BAA6A286B3FF4A4AE02F08B
:102EF8000303A16A8B427FF49EAEC2F30512E36A14
:102F08009A427FF498AE236BC0F30802013B9A42C1
:102F18007FF491AE636BC0F34622013B9A427FF483
:102F28008AAEA36BC0F30642013B9A427FF483AE9C
:102F3800E36BC0F30660013B98427FF47CAE6B6B99
:102F4800A26CC3F3CC039A423FF416AE2D4AD36A5F
:102F580023F00103D36203F081FE054603F07EFEF1
:102F6800A842FBD0274A284B506BA16C034043EA88
:102F7800C1035363D36A43F00103D362FCE542F40F
:102F880080221A601A6842F480321A6074E51D4D76
:102F980041F288372B6F23F001032B672B6F23F047
:102FA80004032B6703F05AFE064605E003F056FEBD
:102FB800801BB8423FF6B8AE2B6F9807F6D4D7E51A
:102FC800EB68226A23F07C5343EA0263EB602368D0
:102FD80099E50C4A136F43F0010313677BE6094A2E
:102FE800536823F0F84343F08043536023688AE52D
:102FF80042F004021A671A6F42F001021A676AE681
:1030080001207047004402580700FFFF3F4A136938
:1030180003F03803102B04D0182B0DD01BB13C48FB
:1030280070473C4870471368990648D513683A4872
:10303800C3F3C103D8407047916A30B4946AD56A23
:1030480014F47C7F536BC4F3051036D0C3F3CC0360
:1030580005F0010501F0030107EE900A05FB03F3F3
:103068000129F8EEE77A06EE903AFAEEE96A02D01C
:10307800022926D041B39FED297A87EE276A136B80
:10308800C3F3080307EE103AF7EE005AB8EEC77A12
:1030980037EE267A37EE257A27EE067A1B4B1B6B1E
:1030A800C3F34623013307EE903AF8EEE76AC7EE1A
:1030B800267AFCEEE77A17EE900A30BC704716487D
:1030C80070479FED177AD8E713689B061AD51068E2
:1030D800F7EE005A136B1049C0F3C102C3F308039B
:1030E800D14007EE103A06EE101AB8EEC77AB8EEDD
:1030F800C66A77EE266A86EE277A76EEA57A27EEF6
:10310800277ACBE79FED077AB7E700BF004402585C
:1031180000093D00006CDC020090D0030024744AD2
:10312800001B374C0024744C002800F00E818D4A97
:10313800136803F00F038B422DE9F04104460D4656
:103148000CD2136823F00F030B431360136803F0CA
:103158000F038B4202D00120BDE8F0812368580795
:103168000BD5814920698A6902F07002904204D91E
:103178008A6922F0700202438A6119070BD57A49DD
:103188006069CA6902F07002904204D9CA6922F0E3
:1031980070020243CA61DA060BD57349A069CA698D
:1031A80002F4E062904204D9CA6922F4E062024360
:1031B800CA619F060BD56C49E0690A6A02F0700281
:1031C800904204D90A6A22F0700202430A629E07FA
:1031D80003F0010240F1AB80634EE068B16901F091
:1031E8000F01884204D9B16921F00F010143B1618F
:1031F800002A30D05C4AA168936923F470630B43BA
:10320800936161681368022900F0A180032900F026
:103218009880012900F0A1805F079CD5524E41F2A9
:103228008838336923F007030B43336103F016FD35
:10323800074605E003F012FDC01B404500F28B80F5
:103248003369626803F03803B3EBC20FF2D1236825
:103258009E0706D5E06844498A6902F00F02824257
:1032680069D840490A6802F00F02AA420AD90A68D6
:1032780022F00F022A430A600A6802F00F02AA42EB
:103288007FF469AF58070BD5374920698A6902F07E
:103298007002904204D28A6922F0700202438A6165
:1032A80019070BD530496069CA6902F0700290426B
:1032B80004D2CA6922F070020243CA61DA060BD549
:1032C8002949A069CA6902F4E062904204D2CA6935
:1032D80022F4E0620243CA619B060BD5224AE169E7
:1032E800136A03F07003994204D2136A23F070033F
:1032F8000B431362FFF78AFE1B4A03461B4891697A
:103308009269C1F303211A4D02F00F02194C415C76
:10331800825C01F01F01184802F01F02CB400068D0
:103328002B60D3402360BDE8F04103F035BC002A90
:103338007FF460AF95E78A6922F00F0202438A6141
:103348008FE79A013FF56AAF05E7012070479803B8
:103358003FF564AFFFE60320FEE6DB053FF55EAF11
:10336800F9E600BF00200052004402587894000893
:10337800E0000020DC000020E8000020184A38B5F2
:10338800136903F03803102B19D0182B22D0C3B1BE
:10339800144B134914488A698969C2F30322134CF0
:1033A80001F00F01124D825C405C02F01F0200F038
:1033B8001F00D34023FA00F02B60206038BD0D4B6E
:1033C800E7E713689B0609D512680B4BC2F3C102E5
:1033D800D340DEE7FFF7B6FA0346DAE7064BD8E74D
:1033E8000044025800093D0078940008DC000020E1
:1033F800E0000020006CDC020090D0031C4A38B5C5
:10340800136903F03803102B20D0182B29D0FBB1F7
:10341800184B174A18499069184DC0F30320184CE7
:10342800085C00F01F00C340906900F00F002B609B
:10343800085C00F01F00C3402360D269C2F3021287
:10344800885C00F01F0023FA00F038BD0D4BE0E760
:1034580013689B0609D512680B4BC2F3C102D3400F
:10346800D7E7FFF76FFA0346D3E7074BD1E700BF6B
:103478000044025800093D0078940008E00000204C
:10348800DC000020006CDC020090D0031C4A38B538
:10349800136903F03803102B20D0182B29D0FBB167
:1034A800184B174A18499069184DC0F30320184C57
:1034B800085C00F01F00C340906900F00F002B600B
:1034C800085C00F01F00C3402360D269C2F30222E7
:1034D800885C00F01F0023FA00F038BD0D4BE0E7D0
:1034E80013689B0609D512680B4BC2F3C102D3407F
:1034F800D7E7FFF727FA0346D3E7074BD1E700BF23
:103508000044025800093D0078940008E0000020BB
:10351800DC000020006CDC020090D003F8B5364CCB
:1035280006460F46236823F08063236003F096FB6A
:10353800054604E003F092FB401B022856D8236896
:103548001A01F7D4A36A326823F47C3343EA0233BE
:10355800A362D6E90232013B013A5B0212049BB234
:1035680002F4FE0213437268013AC2F308021343DD
:103578003269013A120602F0FE421343A363E36A7A
:10358800726923F0C0031343E362E26AB36922F06D
:1035980020021A43194BE262E26A22F01002E26248
:1035A800E16BF2690B4043EAC203E363E36A43F069
:1035B8001003E362E36ADFB1012F0CBF43F4801309
:1035C80043F40013E3620C4C236843F080632360E8
:1035D80003F044FB054604E003F040FB401B0228CF
:1035E80004D823681B01F7D50020F8BD0320F8BDD7
:1035F80043F40023E362E6E7004402580700FFFFB4
:10360800F8B5364C06460F46236823F080532360EE
:1036180003F024FB054604E003F020FB401B0228CE
:1036280056D823689A00F7D4A36A326823F07C73CB
:1036380043EA0253A362D6E90232013B013A5B0234
:1036480012049BB202F4FE0213437268013AC2F3F9
:10365800080213433269013A120602F0FE4213438C
:103668002364E36A726923F440631343E362E26A02
:10367800B36922F400721A43194BE262E26A22F437
:103688008072E262616CF2690B4043EAC2036364D0
:10369800E36A43F48073E362E36ADFB1012F0CBF8E
:1036A80043F4000343F08073E3620C4C236843F057
:1036B8008053236003F0D2FA054604E003F0CEFA03
:1036C800401B022804D823689B00F7D50020F8BDCA
:1036D8000320F8BD43F48003E362E6E700440258A0
:1036E8000700FFFF2DE9F843D0E9003204461D0129
:1036F80003F0006625D5816EB1F5001F00F06086E5
:1037080014D8002900F0FA86B1F5801F40F06684CD
:10371800AD49896A01F00301032900F05F840221A1
:103728000830FFF7FBFE064600F056BEB1F5401F15
:1037380040F05484A44D0026286D20F44010014325
:103748002965D8050AD5A16D042906D8DFE811F046
:10375800A8044C066106AD04AD040126354699055A
:1037680024D5E16D802900F0648600F222810029C9
:1037780000F0AC84402940F023819349896A01F024
:103788000301032900F01C81002104F10800FFF760
:10379800C5FE0546D4E90032002D40F01B858A4F4E
:1037A800E06D396D21F4E071014339655F0528D575
:1037B800D4F8A810B1F5800F00F04F8600F206810A
:1037C800002900F06384B1F5001F40F007817E49AD
:1037D800896A01F00301032900F00081002104F146
:1037E8000800FFF79BFE0546D4E90032002D40F0A3
:1037F800F484754FD4F8A800B96D21F46001014331
:10380800B965180528D5D4F8AC10B1F1007F00F0DF
:10381800AC8500F2E680002900F02584B1F1807FB4
:1038280040F0E7806849896A01F00301032900F044
:10383800E080002104F10800FFF770FE0546D4E996
:103848000032002D40F0CC845F4FD4F8AC00B96D45
:1038580021F0E0610143B965990118D5E16C20298F
:1038680000F0FF8400F2C88039B1102940F0C78009
:103878005548C16A41F40031C162002D40F09F846F
:10388800514FE06CF96C21F030010143F964DF0419
:1038980026D5216EB1F5005F00F07B8500F2B2807D
:1038A800002900F0EA83B1F5805F40F0B380464913
:1038B800896A01F00301032900F0AC80002104F1BA
:1038C8000800FFF72BFE0546D4E90032002D40F032
:1038D8008A843D4F206E396D21F4E04101433965FA
:1038E800980424D5616EB1F5003F00F0168500F20A
:1038F800948091B1B1F5803F40F099803249896A4E
:1039080001F00301032900F09280012104F108006D
:10391800FFF704FE0546D4E90032002D40F0768416
:10392800294F606E396D21F4E0210143396559044E
:1039380023D5D4F8B010B1F1005F00F0028579D832
:1039480081B1B1F1805F7DD11F49896A01F003011E
:10395800032977D0012104F10800FFF7DFFD0546B0
:10396800D4E90032002D40F05484174FD4F8B00049
:10397800B96D21F0E0410143B9651F040DD5216FF0
:10398800B1F1805F00F0E282B1F1005F00F0F083F6
:10399800002900F0E08201263546D8015ED5A16CE9
:1039A800032900F2CD85DFE811F05500500093049B
:1039B8005500C0293FF4F0AEB1F5807F3FF4ECAE7E
:1039C80001263546F2E600BF00440258B1F5C00FA3
:1039D8003FF40CAFB1F5000F3FF408AF01263546B0
:1039E8000FE7B1F1407F3FF42CAFB1F1806F3FF4A6
:1039F80028AF012635462FE730293FF43EAF012690
:103A0800354644E7B1F5405F3FF460AFB1F5804F0C
:103A18003FF45CAF0126354662E721F48030B0F50B
:103A2800802F3FF47AAFB1F5403F3FF476AF0126DF
:103A380035467CE721F08050B0F1804F92D0B1F14B
:103A4800405F8FD00126354697E73748C16A41F471
:103A58000031C162002D00F0B5832E46590200F1F5
:103A6800C082DF072FD5E16F28292AD8DFE811F0B7
:103A7800AB02290029002900290029002900290072
:103A88009C02290029002900290029002900290071
:103A98002D052900290029002900290029002900CD
:103AA800AB02290029002900290029002900290042
:103AB800AB02290029002900290029002900290032
:103AC800AB020126354698071ED5A16F052900F2DD
:103AD8001C85DFE811F015000600E8041500150044
:103AE80015001149896A01F00301032900F00D85C9
:103AF800012104F10800FFF711FD0546D4E9003261
:103B0800002D00F07B832E46590722D5D4F8941057
:103B1800052900F2FE84DFE811F018000900B4045A
:103B280018001800180000BF00440258B049896AFC
:103B380001F00301032900F0EC84012104F10800DD
:103B4800FFF7ECFC0546D4E90032002D00F0648351
:103B58002E469F0626D5D4F89010B1F1005F00F0EC
:103B68006E8300F2948191B1B1F1805F40F0998148
:103B78009F49896A01F00301032900F0928100211D
:103B880004F10800FFF7CAFC0546D4E90032002D0D
:103B980040F04B83964FD4F89000796D21F0E041C6
:103BA80001437965580626D5D4F89C10B1F5006F05
:103BB80000F0A18300F2788191B1B1F5806F40F0F7
:103BC8007D818B49896A01F00301032900F0768120
:103BD800002104F10800FFF7A1FC0546D4E90032F2
:103BE800002D40F02883824FD4F89C00B96D21F451
:103BF800E0510143B965190626D5D4F8A010B1F5EE
:103C0800804F00F0538300F25C8191B1B1F5005F01
:103C180040F061817649896A01F00301032900F0C7
:103C28005A81002104F10800FFF778FC0546D4E921
:103C38000032002D40F0FB826D4FD4F8A000B96D22
:103C480021F460410143B9651F070BD5D4F88400FE
:103C5800B0F5805F00F05082654F796D21F44051D6
:103C680001437965D8060BD5D4F89800B0F5807F64
:103C780000F057825E4FB96D21F440710143B96578
:103C880019030ED5D4F8A410B1F5803F00F06E8169
:103C9800B1F5003F00F07981002900F07A82012611
:103CA80035465F030FD5D4F88810B1F5001F00F032
:103CB800EB82B1F5401F00F03D81B1F5801F00F0A7
:103CC800348101263546D80320D5216D002900F01E
:103CD8004582B1F5803F40F025814549896A01F068
:103CE8000301032900F01E81022104F10800FFF7F7
:103CF80015FC0546D4E90032002D40F037823C4FD0
:103D0800206DF96C21F480310143F96499000ED5D6
:103D18003749896A01F00301032907D0022104F118
:103D28002800FFF76DFCD4E9003200B101269F039B
:103D380040F1E080D4F88010B1F5807F00F0058272
:103D480040F2CC8021F48070B0F5007F00F0C9808B
:103D58000125D80206D52648666F016D21F000417D
:103D680031430165D90007D52148D4F8B860016905
:103D780021F48041314301619F0206D51C48E66E5B
:103D8800016D21F08071314301655E0009D5184944
:103D9800086920F4004008610869D4F8BC60304321
:103DA8000861002B06DA1248666DC16C21F040519B
:103DB8003143C164180207D50D49D4F88C004B6D06
:103DC80023F4400303434B65D10713D5084B9B6A83
:103DD80003F00303032B00F08D81002104F1080098
:103DE800FFF79CFB6268002840F0048202E000BFF5
:103DF8000044025893070FD5B24B9B6A03F00303A4
:103E0800032B00F06C81012104F10800FFF786FB09
:103E18006268002840F0F08157070FD5A94B9B6ACC
:103E280003F00303032B00F05C81022104F1080076
:103E3800FFF774FB6268002840F0D88116070FD599
:103E4800A04B9B6A03F00303032B00F04C81002175
:103E580004F12800FFF7D4FB6268002840F0C8810D
:103E6800D0064AD5974B04F128069B6A03F0030352
:103E7800032B00F03A8101213046FFF7C1FB0028EF
:103E88003AD063689A0640F18C80054639E021F003
:103E98008050B0F1804F3FF47AAEB1F1405F3FF40B
:103EA80076AE012635467DE621F48060B0F5805F68
:103EB8003FF496AEB1F5406F3FF492AE0126354619
:103EC80099E621F40050B0F5004F3FF4B2AEB1F5D9
:103ED800C04F3FF4AEAE01263546B5E600297FF463
:103EE80037AF002D7FF435AF764D686D20F4407004
:103EF8000143696535462CE7626893060DD504F1E0
:103F08002806704B9B6A03F00303032B49D0022158
:103F18003046FFF775FB002843D1281E18BF012043
:103F2800BDE8F88301263546F0E66648C16A41F4E3
:103F38000031C162002D40F04081624FD4F8880002
:103F4800796D21F4401101437965BCE65D48C16A89
:103F580041F40031C162002D40F02C81594F206F8F
:103F6800396D21F040510143396516E55549896A93
:103F780001F0030103293FF492AE022104F1280065
:103F8800FFF73EFB0546D4E90032002D40F0518191
:103F98004C4FD4F8A400B96D21F440310143B96500
:103FA8007FE60120BDE8F8834649896A01F00301EC
:103FB80003293FF486AD012104F10800FFF7AEFAAA
:103FC8000546D4E90032002D40F037813D4FE06FBF
:103FD800796D21F038010143796574E50126FFF711
:103FE800B0BB394F3B6843F480733B6002F036FE48
:103FF800804606E002F032FEA0EB0800642800F2DA
:1040080077823B68DA05F5D5002D40F072822D4A9B
:10401800D4F8B430116F594011F4407F0BD0116FB0
:10402800106F21F4407140F480301067106F20F455
:10403800803010671167B3F5807F00F0858203F444
:104048004072B2F5407F00F093821E490A6922F45B
:104058007C520A611B48C3F30B01076F3943D4E94B
:1040680000320167FDE41748C16A41F40031C162BA
:10407800002D40F0B580FFF7E7BB1248C16A41F454
:104088000031C162002D40F0AE8022E40D48C16AC3
:1040980041F40031C162002D40F09F80FFF7A9BBB9
:1040A8000848C16A41F40031C1623546002D40F02C
:1040B800AD81044FA06D396D21F0070101433965C9
:1040C800FFF74DBB0044025800480258BB48C16A7C
:1040D80041F40031C162002D7CD1FFF760BB01259E
:1040E8009AE60125AAE60125BAE691067FF559AFB9
:1040F800012506E701257DE6B049896A01F003013B
:10410800032900F00A82022104F12800FFF778FA57
:10411800002800F00F82D4F884000126D4E9003288
:104128009AE5A649896A01F00301032900F0F8819C
:10413800022104F12800FFF763FA002840F0F38118
:10414800D4F89800D4E9003294E59C4FF86A40F41A
:104158000030F862002D7FF4FCADC5E69748C16ACF
:1041680041F40031C162002D3FF4C9AD2E46CDE5C2
:104178009249896A01F0030103293FF40CAC01213B
:1041880004F10800FFF7CAF90546D4E900328DB9F1
:10419800E4E68A48806A00F0030003283FF47FAD14
:1041A80004F10800FFF7BAF90546D4E90032002DFA
:1041B8003FD1EDE62E46FFF7F0BB2E4683E52E46AF
:1041C800FFF765BB7D4FA06CF96C21F0030101433B
:1041D800F96443E42E46FFF7E9BA2E46FFF711BB10
:1041E8002E46FFF739BB2E46FFF77ABB054625E674
:1041F800054635E60546FDE505460DE66F4FA06F19
:10420800796D21F00701014379657DE42E46FFF7BA
:104218008EBB2E46FFF7B1BB684FD4F89400B96D3A
:1042280021F007010143B96593E42E46BAE42E460E
:104238000AE52E4635E52E46DDE42E4643E45F4981
:10424800896A01F0030103293FF42BAE022104F12E
:104258002800FFF7D5F90546D4E90032002DE4D14E
:1042680098E45649896A01F0030103293FF4C7AB72
:10427800022104F10800FFF751F90546D4E900329C
:10428800002D9CD1FFF7FCBA4C49896A01F0030163
:1042980003293FF416AD012104F12800FFF7B0F916
:1042A8000546D4E90032002D87D146E64349896A9C
:1042B80001F0030103293FF40EAE022104F12800A6
:1042C800FFF79EF90546D4E90032002DAFD1B3E4DB
:1042D8003A49896A01F00301032900F0318102217A
:1042E80004F10800FFF71AF90546D4E90032002D59
:1042F8007FF4B3AB66E73149896A01F0030103290A
:104308003FF4DCAD022104F12800FFF779F90546F6
:10431800D4E90032002D8ED165E42849896A01F07C
:10432800030103293FF483AB012104F12800FFF7BF
:1043380067F90546D4E90032002D7FF467AFFFF72F
:10434800EFBA1E49896A01F0030103293FF47AABE9
:10435800012104F12800FFF753F90546D4E900329A
:10436800002D7FF456AFFFF700BB1449896A01F0AE
:10437800030103293FF43DAB002104F12800FFF7B6
:104388003FF90546D4E90032002D7FF429AFFFF745
:104398005BBA0A49896A01F0030103293FF43AAB81
:1043A800002104F12800FFF72BF90546D4E9003273
:1043B800002D7FF418AFFFF78CBA00BF00440258F5
:1043C8007349896A01F0030103293FF407AE02210A
:1043D8002830FFF715F90646D4E90032002E7FF49D
:1043E800B0A9A16EFFF7A6B96949896A01F003016E
:1043F80003293FF4B2A9002104F10800FFF78EF861
:104408000546D4E90032002D3FF453AE2E46FFF79F
:10441800A6B95F49896A01F0030103293FF49DA900
:10442800002104F12800FFF7EBF80546D4E9003233
:104438003CE65749896A01F0030103293FF4C0AA01
:10444800002104F12800FFF7DBF80546D4E9003223
:10445800002D7FF4BFAEFFF7A2B94D49896A01F07C
:10446800030103293FF4BAAA002104F12800FFF749
:10447800C7F80546D4E90032002D7FF4AEAEFFF749
:10448800B8B94349896A01F00301032941D00121E0
:1044980004F12800FFF7B4F80546D4E90032002DEE
:1044A8007FF456ABB8E63A49896A01F0030103295B
:1044B8002BD0012104F12800FFF7A2F80546D4E922
:1044C8000032002D7FF41FAB98E63149896A01F06C
:1044D800030103293FF4F5AA012104F12800FFF79D
:1044E8008FF80546D4E90032002D7FF4A6AE6DE5BD
:1044F80003252E46D4E90032FFF7B3BA244DE86A03
:1045080040F40030E862FFF715B901263546FFF799
:10451800FBBA01263546FFF71CBB0126FFF79CBBFB
:104528000126FFF7A7BBD4F898000126D4E900328A
:10453800FFF7A0BBD4F88400D4E90032FFF78CBBA6
:1045480001263546FFF78ABA02F088FBDFF840807B
:10455800074641F2883904E002F080FBC01B484559
:1045680010D8D8F870309B07F6D5D4F8B43066E583
:104578000748084A016902EA131221F47C510A43E8
:10458800026167E50326D4E900323546FFF769BAC8
:1045980000440258CFFFFF0008B5FEF7EFFE054BB9
:1045A800054A1B6AC3F30213D35C03F01F03D84008
:1045B80008BD00BF0044025878940008474A70B408
:1045C800946A956AD66A15F47C3FC5F30533D16BB6
:1045D8005BD0C1F3CC01C6F3001604F0030407EE68
:1045E800903A06FB01F1012CB8EEE77A06EE901A34
:1045F800FAEEE96A03D0022C6AD0002C4AD0DFED2B
:10460800387A87EE876A936BC3F3080307EE903A0C
:10461800F7EE005AF8EEE77A77EEA67A77EEA57A03
:1046280067EE867A2D4AB7EE006A936BC3F346238A
:1046380007EE103AB8EEC77A70BC37EE067AC7EEC6
:10464800876AFCEEE66AC0ED006A936BC3F3064323
:1046580007EE103AB8EEC77A37EE067AC7EE876AE1
:10466800FCEEE66AC0ED016A936BC3F3066306EEDF
:10467800903AF8EEE66A76EE866A87EEA67AFCEE5F
:10468800C77A17EE903A8360704770BCC0E9003370
:104698008360704713689B061DD51468F7EE005AAF
:1046A800936B1049C4F3C102C3F30803D14007EE6A
:1046B800903A06EE101AF8EEE77AB8EEC66A77EE88
:1046C800A66AC6EE077A36EEA57A67EE877AA9E774
:1046D800DFED057A95E7DFED057A92E700440258A9
:1046E8000024744A0090D003001B374C0024744CFB
:1046F800474A70B4946A956AD66A15F07C7FC5F308
:104708000553516C5BD0C1F3CC01C6F3002604F00D
:10471800030407EE903A06FB01F1012CB8EEE77AA4
:1047280006EE901AFAEEE96A03D0022C6AD0002C41
:104738004AD0DFED387A87EE876A136CC3F3080333
:1047480007EE903AF7EE005AF8EEE77A77EEA67A97
:1047580077EEA57A67EE867A2D4AB7EE006A136C73
:10476800C3F3462307EE103AB8EEC77A70BC37EEAB
:10477800067AC7EE876AFCEEE66AC0ED006A136C3B
:10478800C3F3064307EE103AB8EEC77A37EE067A57
:10479800C7EE876AFCEEE66AC0ED016A136CC3F3E4
:1047A800066306EE903AF8EEE66A76EE866A87EEDB
:1047B800A67AFCEEC77A17EE903A8360704770BC11
:1047C800C0E900338360704713689B061DD51468E1
:1047D800F7EE005A136C1049C4F3C102C3F308037F
:1047E800D14007EE903A06EE101AF8EEE77AB8EEE6
:1047F800C66A77EEA66AC6EE077A36EEA57A67EE3F
:10480800877AA9E7DFED057A95E7DFED057A92E784
:10481800004402580024744A0090D003001B374C0F
:104828000024744C474A70B4946A956AD66A15F4A1
:104838007C7FC5F30513516B5BD0C1F3CC0106F047
:10484800010604F0030407EE903A06FB01F1012C7F
:10485800B8EEE77A06EE901AFAEEE96A6FD0022C03
:104868006AD0002C4AD0DFED387A87EE876A136B5E
:10487800C3F3080307EE903AF7EE005AF8EEE77A2A
:1048880077EEA67A77EEA57A67EE867A2D4AB7EEA6
:10489800006A136BC3F3462307EE103AB8EEC77AE3
:1048A80070BC37EE067AC7EE876AFCEEE66AC0EDA2
:1048B800006A136BC3F3064307EE103AB8EEC77AE3
:1048C80037EE067AC7EE876AFCEEE66AC0ED016A43
:1048D800136BC3F3066306EE903AF8EEE66A76EEDB
:1048E800866A87EEA67AFCEEC77A17EE903A83605E
:1048F800704770BCC0E900338360704713689B063B
:10490800B1D51468F7EE005A136B1049C4F3C1020D
:10491800C3F30803D14007EE903A06EE101AF8EEFA
:10492800E77AB8EEC66A77EEA66AC6EE077A36EE7A
:10493800A57A67EE877AA9E7DFED057A95E7DFEDD7
:10494800057A92E7004402580024744C0090D00382
:10495800001B374C0024744AA0F580730B4300B544
:1049680085B000F08380A0F500730B4338D0A0F524
:1049780080630B4300F0E680A0F500630B4300F072
:104988008980A0F580530B4360D0A0F500530B43FA
:1049980000F01281A0F500230B4300F0A380A0F5DE
:1049A80080330B4300F0FA80A0F580430B4300F0FE
:1049B8004381A0F50040084337D19A4A136D03F0AC
:1049C8004053B3F1805F00F08480B3F1005F00F0E2
:1049D800578153BB106810F4003044D0924842E02D
:1049E800904A136D03F4E073802B00F0A68020D961
:1049F800C02B37D0B3F5807F17D1D36C116803F083
:104A08004053490702D5002B00F0C280854A12683E
:104A1800D00503D5B3F1805F00F00281814A1268A6
:104A2800910302D5B3F1005FD8D0002005B05DF83E
:104A380004FB002B4DD0402BF7D1106810F000601C
:104A480011D001A8FFF7BAFD01980CE0754A136D63
:104A580003F4E043B3F5005F6FD038D9B3F5405F96
:104A680040F08880714805B05DF804FB6D4B1B6D04
:104A780003F00703042BD8D801A252F823F000BF93
:104A88002B4B0008074B0008174B00086D4A00081D
:104A9800134B0008634A936D03F0E063B3F1007FA2
:104AA8004BD044D9B3F1407FDCD0B3F1806FBCD197
:104AB800D36C126803F040535207A7D5002BA5D139
:104AC800584B5B481B68C3F3C103D840CBE7002BA6
:104AD80054D1106810F00070C5D001A8FFF7A2FEED
:104AE8000298C0E74F4A936D03F44033B3F5803F13
:104AF80000F0D080B3F5003FDAD0002B95D1494BB8
:104B0800186810F00060AED09BE7464A75E7454B41
:104B1800186810F00050A6D001A8FFF7E9FD019829
:104B2800A1E7404B186810F000709CD0D5E7002B27
:104B3800CFD0B3F1807F80D077E7106810F00050B5
:104B480091D0E9E7374A936D03F46003B3F5800F1A
:104B5800F3D006D8002BBCD0B3F5001F3FF46DAFDF
:104B680063E7B3F5C00F3FF47DAFB3F5000F3FF433
:104B780044AF5AE7B3F5804F9AD056E7B3F5805F54
:104B88003FF45BAF51E7106810F004003FF46BAFDF
:104B980013682748C3F3C103D84064E7214BDA6C94
:104BA800D203BFD5186810F000603FF45CAF01A8CD
:104BB800FFF704FD039856E71A4A136D03F4E02340
:104BC800B3F5403FDFD010D8B3F5803F58D0B3F5E8
:104BD800003F18D1134B186810F000503FF443AF52
:104BE80001A8FFF785FD02983DE7B3F5802F12D0A5
:104BF800B3F5A02F7FF419AF0A4B186810F40030F2
:104C08003FF431AFEAE6002B7FF40FAF05B05DF853
:104C180004EBFEF7F3BB106810F480703FF423AF89
:104C2800044820E700440258006CDC020080BB0006
:104C38000090D00300093D00284B9B6D03F0E04332
:104C4800B3F1405F37D014D8B3F1805F3FD0B3F1F0
:104C5800005FBFD0002B7FF4E8AEFEF78FFB1F4B41
:104C68001F4A1B6AC3F30213D35C03F01F03D84027
:104C7800F9E6B3F1804F17D0B3F1A04FBCD0D4E61A
:104C8800106810F000603FF4EEAE01A8FFF796FC44
:104C98000298E8E6106810F000503FF4E4AE01A86E
:104CA800FFF726FD0398DEE60C4B186810F48070B9
:104CB8003FF4D9AEB4E7094B186810F004003FF48C
:104CC800D2AE1B680748C3F3C103D840CBE6034BF9
:104CD800186810F000603FF4C6AED6E700440258EA
:104CE800789400080090D0032DE9F04F0C6885B047
:104CF800002C00F0A58000234FF0010B4FF0B04EC0
:104D080000910BFA03FC1CEA040A00F09480009955
:104D18005F004D68032105F0030201FA07F602F16E
:104D2800FF38F643B8F1010F40F28D80032A40F0B6
:104D3800CB80BA40076815F4403F06EA070642EA06
:104D48000602026077D07F4E03F003070F21D6F8E2
:104D5800F420BF0042F0020201FA07FC7A49C6F8C3
:104D6800F420D6F8F42023F00306884206F1B04672
:104D780002F0020206F580660392039AB26822EAFC
:104D88000C0231D001F58061884200F0B0806F4993
:104D9800884200F0B280DFF8B8C1604500F0A18019
:104DA800DFF8B0C1604500F0B480DFF8ACC1604501
:104DB80000F0B580DFF8A4C1604500F0A480DFF8FA
:104DC800A0C1604500F0B180DFF898C1604500F0EF
:104DD800B280DFF894C160450CBF4FF0090C4FF06A
:104DE8000A0C0CFA07F73A43B260EF02DEF800202B
:104DF8006FEA0A064CBF4AEA02023240A902CEF81C
:104E08000020DEF8042054BF32404AEA0202AF0311
:104E1800CEF80420DEF8842054BF32404AEA020269
:104E2800E903CEF88420DEF8802054BF32404AEAF5
:104E38000202CEF88020013334FA03F27FF461AF26
:104E480005B0BDE8F08F0099022AD0F80890C9682B
:104E580009EA060901FA07F8009948EA0908896881
:104E6800C0F80880C5F30018D0F8049008FA03F8D1
:104E780029EA0C0C48EA0C0CC0F804C001FA07FC3B
:104E8800D0F80C8008EA06084CEA080CC0F80CC0F8
:104E98007FF44FAF03F0070C00994FEAD3084FEAAD
:104EA8008C0C096900EB880801FA0CF1D8F82090FD
:104EB80001910F2101FA0CFC019929EA0C0941EA38
:104EC800090CC8F820C034E70099D0F80C8089682C
:104ED80008EA060801FA07FC4CEA080CC0F80CC0FE
:104EE80027E74FF0030C0CFA07F73A437CE74FF03B
:104EF800010C0CFA07F73A4376E74FF0020C0CFA6C
:104F080007F73A4370E74FF0060C0CFA07F73A43F5
:104F18006AE74FF0040C0CFA07F73A4364E74FF0DE
:104F2800050C0CFA07F73A435EE74FF0070C0CFA4A
:104F380007F73A4358E74FF0080C0CFA07F73A43DB
:104F480052E700BF00440258000002580008025807
:104F5800000C025800100258001402580018025899
:104F6800001C025800200258002402580369194204
:104F780014BF01200020704702B9090481617047FD
:104F88003649024603688B4233D01831591AB1FAB0
:104F980081F1490969BB324883423ED018308342C7
:104FA8003ED01830834234D0183083423BD018307A
:104FB80083423ED0183083422AD000F5567083428F
:104FC80035D028498B4231D018318B4234D0183132
:104FD8008B4234D018318B4234D018318B4234D0C4
:104FE80018318B4234D018318B4234D023F0FF0073
:104FF80011E0DBB21C491D48103BA1FB031310B4A0
:105008001B091B4CE15C5DF8044BC2E916017047B3
:1050180016211848D1659065704710211348F9E7A3
:1050280016211248F6E706211248F3E7062112482E
:10503800F0E710210F48EDE710210F48EAE71621A5
:105048000D48E7E700210D48E4E706210B48E1E7B2
:1050580010210A48DEE716210848DBE71000024065
:105068004000024028040240ABAAAAAA000002405D
:10507800889400080400024000040240040402402E
:105088000268274B274930B4274D284CAA4218BF3D
:105098009A420CBF012300238A4208BF43F0010350
:1050A8002831A24208BF43F0010328348A4208BFCE
:1050B80043F001032831A24208BF43F001038A42AA
:1050C80008BF43F00103D1B213B9194B9A4212D168
:1050D800A1F108031749184AA1FB03130121174C32
:1050E80002EB1312C3F30413920099408166C0E9DE
:1050F800182430BC7047A1F110031149114C114418
:10510800A4FB0343A8294FEA131300D808330E4A17
:1051180003F01F0401211A44A1400C4C9200E5E75A
:1051280008540258305402581C5402584454025827
:1051380094540258CDCCCCCC009600168058025816
:10514800F0FBFDBFABAAAAAA0082001080080240AB
:105158002DE9F04F054683B001F080FD002D00F0E9
:1051680003822C680646654B9C4200F0BC801833CD
:105178009C4200F0B88018339C4200F0B480183389
:105188009C4200F0B08018339C4200F0AC80183389
:105198009C4200F0A88018339C4200F0A480183389
:1051A8009C4200F0A08003F556739C4200F09B805F
:1051B80018339C4200F0978018339C4200F093808B
:1051C80018339C4200F08F8018339C4200F08B808B
:1051D80018339C4200F0878018339C4200F083808B
:1051E80018339C427FD04649464A474BA4EB0109F5
:1051F800A21A464FA4EB0308B9FA89F91433B2FA94
:1052080082F24FEA5919B8FA88F8A4EB030A52094E
:105218004FEA5818E71BBAFA8AFA49EA02013C4EE3
:10522800B7FA87F73B484FEA5A1A48EA0101A61B22
:10523800A4EB000B7F094AEA0101B6FA86F614309E
:10524800BBFA8BFB39437609231A4FEA5B1B3143C0
:10525800B3FA83F35BEA01014FEA5313019302D1D6
:10526800002B00F0D4810221DFF8B4C085F8351096
:10527800002185F83410216801EA0C0CA96840293E
:1052880000F0C281A1F18001B1FA81F149094FEA28
:10529800813E2969E868C9081F4B009241EAD0009D
:1052A8006969234440EAD100A96940EAD100E96963
:1052B80040EAD100296A40EA111141EA0C014EEA9C
:1052C800010121601549A1FB03012846090989004C
:1052D800E965FFF755FEE96D009A01F01F04012109
:1052E800A1404160E2E0022385F83530002385F8CB
:1052F8003430236823F0010323601AE010000240D1
:10530800085402581C540258305402585854025831
:105318006C54025880540258F8ABFDA7CDCCCCCCC5
:105328000F00FEFF01F09AFC801B052800F2178190
:105338002C682368DF07F5D4D5E9023029690343CF
:10534800AA6920680B4369690B43E96913430B4356
:10535800B2490140286A0343B1480B43696A0429EA
:1053680000F017810668AF483040B0F1005F80F068
:10537800D5802360636923F007030B4363612846E4
:10538800FFF7FEFDEA6D3F23A74902F01F02A74F72
:10539800A74E9340A74AE71BA61B8360A4EB02090C
:1053A800A54B1432B9FA89F9A448A4EB0308A44B15
:1053B800A21A4FEA59199C4218BF8C4203F11803EC
:1053C800B2FA82F2B8FA88F80CBF0121002152091A
:1053D800B7FA87F79C4208BF41F0010118334FEA3A
:1053E8005818A4EB000B9C4208BF41F00101183388
:1053F8007F09B6FA86F69C4208BF41F001011833CE
:10540800143076099C4208BF41F001011833BBFAF9
:105418008BFB9C4208BF41F0010118334FEA5B1B2C
:105428009C4208BF41F0010103F556739C4208BF36
:1054380041F0010118339C4208BF41F001011833C3
:105448009C4208BF41F0010118339C4208BF41F05B
:10545800010118339C4208BF41F0010118339C42F6
:1054680008BF41F0010118339C4208BF41F0010117
:1054780018339C4208BF41F00101724B49EA01010F
:10548800A4EB030A231A1143BAFA8AFAB3FA83F38C
:1054980048EA01014FEA5A1A5B094AEA01010193F5
:1054A800394331435BEA010100D17BB328460092BE
:1054B800FFF7E6FDA968009A80295ED068682B6E20
:1054C800C4B20138D5E919C107281C60CCF804100A
:1054D8005AD849EA0A09019B601E48EA090847EABE
:1054E80008073E4343EA060A5BEA0A0A02D1002A91
:1054F80000F08580544A5549224492000123834094
:105508000020C5E91B216B6710604B600020012358
:10551800686585F8353003B0BDE8F08F6868A0F19C
:1055280029061F2E24D94F38032801D843F48013A5
:1055380023600429636923F0070343EA01037FF426
:105548001DAFE86AA96A0B4300283FF417AF8ABB6E
:1055580001294FD031F002027FF410AF32E020224F
:1055680003236A6585F83530012003B0BDE8F08F64
:105578003748F040C007DBD5D8E70023A96ED5E946
:1055880018026B60036051600023C5E91B336B6729
:10559800BCE70768D5E90B0606433343214E3E4076
:1055A800B6F1005FBAD22360636923F0070343F0C2
:1055B8000403C7E7B2F5005F0DD0022905D9032916
:1055C8007FF4DCAEC2017FF5D9AE402201236A65C3
:1055D80085F83530C8E703293FF6D0AE01A252F866
:1055E80021F000BFD3550008CD550008D355000859
:1055F800FD550008B0F1C07F7FF4C0AEE5E7154A5D
:1056080015492244920079E74FF0100E41E64022F6
:1056180003236A6585F83530A6E700BF3F8010FE92
:105628000010005C0000FFFF1000024058540258B0
:105638006C54025808540258305402588054025886
:1056480028000240445402583F9600164059025818
:105658003F00C0C33F82001040090240002800F00C
:1056680032822DE9F04F90F8344083B0012C00F0DD
:105678002682012480F8344090F83540012C09D066
:105688004FF400620023426580F83430012003B0F3
:10569800BDE8F08F02247D4EDFF8F88180F83540B0
:1056A80000247B4D44650468DFF8EC91444518BF3D
:1056B800B442DFF8F8C1866D0CBF4FF0010B4FF014
:1056C800000B01964C4514BFDE464BF0010EAC4270
:1056D80018BF64450CBF0125002540F0E980D4F8C7
:1056E80000C02CF0010CD0E91976C4F800C0D0F83D
:1056F8006CC07E60BCF1000F02D0D0E91C677760F7
:10570800C76D4FF03F08019E07F01F0908FA09F816
:10571800C6F80880276827F48027276063608368B5
:10572800402B00F0D281A160E260002D40F0A28100
:10573800584A036C944200F00182574A944200F0A0
:105748000782BBF1000F40F0D781544A19469442B2
:1057580000F01C82524A944200F04C821832944263
:1057680000F0698202F55672944200F071824D4B46
:105778009C4200F0CE8218339C4200F0D582183348
:105788009C4200F0E58218339C4200F0FE821833F8
:105798009C4200F00F8318339C4200F02183183399
:1057A8009C4200F04983236823F00E0343F00A0368
:1057B800236019B1236843F004032360384B374A48
:1057C800944218BF9C4202F130020CBF012300230F
:1057D800944208BF43F0010302F55672944208BF91
:1057E80043F001031832944208BF43F00103183212
:1057F800944208BF43F001031832944208BF43F0B3
:1058080001031832944208BF43F00103183294424E
:1058180008BF43F001031832944208BF43F0010364
:105828001832944208BF43F001031F4A944208BF4C
:1058380043F001031432944208BF43F001031432C9
:10584800944208BF43F001031432944208BF43F066
:1058580001031432944208BF43F001031432944206
:1058680008BF43F001031432944208BF43F0010318
:105878001432944208BF43F001031BB9BEF1000F74
:1058880000F01581D0F86CC000E100BF7000024044
:1058980028000240400002405800024088000240B0
:1058A800A000024028040240085402581000024098
:1058B800444500F02F814C4500F05481BBF1000FA6
:1058C80040F00681DFF84CC5644500F06B810CF1AF
:1058D800180C644500F07A810CF1180C644500F04E
:1058E80096810CF5567C644500F0BD810CF1180CCE
:1058F800644500F005820CF1180C644500F01F8225
:105908000CF1180C644500F02E820CF1180C64455B
:1059180000F032820CF1180C644500F058820CF14A
:10592800180C644500F069820CF1180C644500F00D
:105938009082D4F800C02CF0010CC4F800C0DFF845
:10594800D8C4644540F0A681D0F86CC0D0E9196786
:105958007760BCF1000F3FF4D3AED0E91C677760E5
:10596800DFF8B084DFF8B4944C4518BF444509F11A
:1059780018090CBF4FF001084FF000084C4508BF4C
:1059880048F0010809F556794C4508BF48F0010868
:1059980009F118094C4508BF48F0010809F1180930
:1059A8004C4508BF48F0010809F118094C4508BFE3
:1059B80048F0010809F118094C4508BF48F00108EA
:1059C80009F118094C4508BF48F0010809F1180900
:1059D8004C4508BF48F00108B8F1000F7FF490AEBD
:1059E800DFF83C8444453FF48BAEDFF83884DFF8B9
:1059F80038944C4518BF444509F114090CBF4FF0C1
:105A080001084FF000084C4508BF48F0010809F1AB
:105A180014094C4508BF48F0010809F114094C4520
:105A280008BF48F0010809F114094C4508BF48F0BF
:105A3800010809F114094C4508BF48F00108B8F1FC
:105A4800000F04D1DFF8E483444540F00D82C66DB1
:105A58004FF0010806F01F09019E08FA09F8C6F878
:105A6800048063608368402B00F0FC81A160036CB4
:105A7800E26062E6236823F01E0343F01603236006
:105A8800036C1BB1236843F008032360036E1A6894
:105A9800D20303D51A6842F480721A60BCF1000F71
:105AA80005D0DCF8003043F48073CCF8003023686C
:105AB800002043F00103236003B0BDE8F08F02200B
:105AC80003B0BDE8F08F01207047A260E1602CE6CA
